{
	"contracts/BasicType.sol": {
		"BasicType": {
			"abi": [
				{
					"inputs": [],
					"name": "testEnum",
					"outputs": [
						{
							"internalType": "uint256",
							"name": "",
							"type": "uint256"
						}
					],
					"stateMutability": "pure",
					"type": "function"
				},
				{
					"inputs": [],
					"name": "testInt",
					"outputs": [
						{
							"internalType": "uint256",
							"name": "",
							"type": "uint256"
						}
					],
					"stateMutability": "pure",
					"type": "function"
				}
			],
			"devdoc": {
				"kind": "dev",
				"methods": {},
				"version": 1
			},
			"evm": {
				"assembly": "    /* \"contracts/BasicType.sol\":70:281  contract BasicType {... */\n  mstore(0x40, 0x80)\n  callvalue\n  dup1\n  iszero\n  tag_1\n  jumpi\n  0x00\n  dup1\n  revert\ntag_1:\n  pop\n  dataSize(sub_0)\n  dup1\n  dataOffset(sub_0)\n  0x00\n  codecopy\n  0x00\n  return\nstop\n\nsub_0: assembly {\n        /* \"contracts/BasicType.sol\":70:281  contract BasicType {... */\n      mstore(0x40, 0x80)\n      callvalue\n      dup1\n      iszero\n      tag_1\n      jumpi\n      0x00\n      dup1\n      revert\n    tag_1:\n      pop\n      jumpi(tag_2, lt(calldatasize, 0x04))\n      shr(0xe0, calldataload(0x00))\n      dup1\n      0xe5561d\n      eq\n      tag_3\n      jumpi\n      dup1\n      0x43ae41d8\n      eq\n      tag_4\n      jumpi\n    tag_2:\n      0x00\n      dup1\n      revert\n        /* \"contracts/BasicType.sol\":95:175  function testInt() public pure returns (uint256) {... */\n    tag_3:\n      tag_5\n      tag_6\n      jump\t// in\n    tag_5:\n      mload(0x40)\n      tag_7\n      swap2\n      swap1\n      tag_8\n      jump\t// in\n    tag_7:\n      mload(0x40)\n      dup1\n      swap2\n      sub\n      swap1\n      return\n        /* \"contracts/BasicType.sol\":227:279  function testEnum() public pure returns (uint256) {} */\n    tag_4:\n      tag_9\n      tag_10\n      jump\t// in\n    tag_9:\n      mload(0x40)\n      tag_11\n      swap2\n      swap1\n      tag_8\n      jump\t// in\n    tag_11:\n      mload(0x40)\n      dup1\n      swap2\n      sub\n      swap1\n      return\n        /* \"contracts/BasicType.sol\":95:175  function testInt() public pure returns (uint256) {... */\n    tag_6:\n        /* \"contracts/BasicType.sol\":135:142  uint256 */\n      0x00\n        /* \"contracts/BasicType.sol\":154:162  uint8 i8 */\n      dup1\n        /* \"contracts/BasicType.sol\":165:168  255 */\n      0xff\n        /* \"contracts/BasicType.sol\":154:168  uint8 i8 = 255 */\n      swap1\n      pop\n        /* \"contracts/BasicType.sol\":144:175  {... */\n      pop\n        /* \"contracts/BasicType.sol\":95:175  function testInt() public pure returns (uint256) {... */\n      swap1\n      jump\t// out\n        /* \"contracts/BasicType.sol\":227:279  function testEnum() public pure returns (uint256) {} */\n    tag_10:\n        /* \"contracts/BasicType.sol\":268:275  uint256 */\n      0x00\n        /* \"contracts/BasicType.sol\":227:279  function testEnum() public pure returns (uint256) {} */\n      swap1\n      jump\t// out\n        /* \"#utility.yul\":7:84   */\n    tag_14:\n        /* \"#utility.yul\":44:51   */\n      0x00\n        /* \"#utility.yul\":73:78   */\n      dup2\n        /* \"#utility.yul\":62:78   */\n      swap1\n      pop\n        /* \"#utility.yul\":7:84   */\n      swap2\n      swap1\n      pop\n      jump\t// out\n        /* \"#utility.yul\":90:208   */\n    tag_15:\n        /* \"#utility.yul\":177:201   */\n      tag_19\n        /* \"#utility.yul\":195:200   */\n      dup2\n        /* \"#utility.yul\":177:201   */\n      tag_14\n      jump\t// in\n    tag_19:\n        /* \"#utility.yul\":172:175   */\n      dup3\n        /* \"#utility.yul\":165:202   */\n      mstore\n        /* \"#utility.yul\":90:208   */\n      pop\n      pop\n      jump\t// out\n        /* \"#utility.yul\":214:436   */\n    tag_8:\n        /* \"#utility.yul\":307:311   */\n      0x00\n        /* \"#utility.yul\":345:347   */\n      0x20\n        /* \"#utility.yul\":334:343   */\n      dup3\n        /* \"#utility.yul\":330:348   */\n      add\n        /* \"#utility.yul\":322:348   */\n      swap1\n      pop\n        /* \"#utility.yul\":358:429   */\n      tag_21\n        /* \"#utility.yul\":426:427   */\n      0x00\n        /* \"#utility.yul\":415:424   */\n      dup4\n        /* \"#utility.yul\":411:428   */\n      add\n        /* \"#utility.yul\":402:408   */\n      dup5\n        /* \"#utility.yul\":358:429   */\n      tag_15\n      jump\t// in\n    tag_21:\n        /* \"#utility.yul\":214:436   */\n      swap3\n      swap2\n      pop\n      pop\n      jump\t// out\n\n    auxdata: 0xa2646970667358221220dcefe55affee97cd6128983b9c6b8d831aefbc3018fbd2688ab7ce7e8df1ce3a64736f6c634300081a0033\n}\n",
				"bytecode": {
					"linkReferences": {},
					"object": "6080604052348015600e575f80fd5b5060d880601a5f395ff3fe6080604052348015600e575f80fd5b5060043610602f575f3560e01c8062e5561d14603357806343ae41d814604d575b5f80fd5b60396067565b60405160449190608b565b60405180910390f35b60536071565b604051605e9190608b565b60405180910390f35b5f8060ff90505090565b5f90565b5f819050919050565b6085816075565b82525050565b5f602082019050609c5f830184607e565b9291505056fea2646970667358221220dcefe55affee97cd6128983b9c6b8d831aefbc3018fbd2688ab7ce7e8df1ce3a64736f6c634300081a0033",
					"opcodes": "PUSH1 0x80 PUSH1 0x40 MSTORE CALLVALUE DUP1 ISZERO PUSH1 0xE JUMPI PUSH0 DUP1 REVERT JUMPDEST POP PUSH1 0xD8 DUP1 PUSH1 0x1A PUSH0 CODECOPY PUSH0 RETURN INVALID PUSH1 0x80 PUSH1 0x40 MSTORE CALLVALUE DUP1 ISZERO PUSH1 0xE JUMPI PUSH0 DUP1 REVERT JUMPDEST POP PUSH1 0x4 CALLDATASIZE LT PUSH1 0x2F JUMPI PUSH0 CALLDATALOAD PUSH1 0xE0 SHR DUP1 PUSH3 0xE5561D EQ PUSH1 0x33 JUMPI DUP1 PUSH4 0x43AE41D8 EQ PUSH1 0x4D JUMPI JUMPDEST PUSH0 DUP1 REVERT JUMPDEST PUSH1 0x39 PUSH1 0x67 JUMP JUMPDEST PUSH1 0x40 MLOAD PUSH1 0x44 SWAP2 SWAP1 PUSH1 0x8B JUMP JUMPDEST PUSH1 0x40 MLOAD DUP1 SWAP2 SUB SWAP1 RETURN JUMPDEST PUSH1 0x53 PUSH1 0x71 JUMP JUMPDEST PUSH1 0x40 MLOAD PUSH1 0x5E SWAP2 SWAP1 PUSH1 0x8B JUMP JUMPDEST PUSH1 0x40 MLOAD DUP1 SWAP2 SUB SWAP1 RETURN JUMPDEST PUSH0 DUP1 PUSH1 0xFF SWAP1 POP POP SWAP1 JUMP JUMPDEST PUSH0 SWAP1 JUMP JUMPDEST PUSH0 DUP2 SWAP1 POP SWAP2 SWAP1 POP JUMP JUMPDEST PUSH1 0x85 DUP2 PUSH1 0x75 JUMP JUMPDEST DUP3 MSTORE POP POP JUMP JUMPDEST PUSH0 PUSH1 0x20 DUP3 ADD SWAP1 POP PUSH1 0x9C PUSH0 DUP4 ADD DUP5 PUSH1 0x7E JUMP JUMPDEST SWAP3 SWAP2 POP POP JUMP INVALID LOG2 PUSH5 0x6970667358 0x22 SLT KECCAK256 0xDC 0xEF 0xE5 GAS SELFDESTRUCT 0xEE SWAP8 0xCD PUSH2 0x2898 EXTCODESIZE SWAP13 PUSH12 0x8D831AEFBC3018FBD2688AB7 0xCE PUSH31 0x8DF1CE3A64736F6C634300081A003300000000000000000000000000000000 "
				},
				"gasEstimates": {
					"creation": {
						"codeDepositCost": "43200",
						"executionCost": "91",
						"totalCost": "43291"
					},
					"external": {
						"testEnum()": "324",
						"testInt()": "315"
					}
				},
				"methodIdentifiers": {
					"testEnum()": "43ae41d8",
					"testInt()": "00e5561d"
				}
			},
			"storageLayout": {
				"storage": [],
				"types": null
			},
			"userdoc": {
				"kind": "user",
				"methods": {},
				"version": 1
			}
		}
	}
}