{
	"contracts/ComplexValueType.sol": {
		"ComplexValueType": {
			"abi": [
				{
					"inputs": [],
					"name": "testAddress",
					"outputs": [
						{
							"internalType": "address",
							"name": "",
							"type": "address"
						}
					],
					"stateMutability": "view",
					"type": "function"
				},
				{
					"inputs": [],
					"name": "testFixedByteArray",
					"outputs": [
						{
							"internalType": "bytes28",
							"name": "",
							"type": "bytes28"
						}
					],
					"stateMutability": "pure",
					"type": "function"
				},
				{
					"inputs": [],
					"name": "testMyAddress",
					"outputs": [
						{
							"internalType": "address",
							"name": "",
							"type": "address"
						}
					],
					"stateMutability": "view",
					"type": "function"
				}
			],
			"devdoc": {
				"kind": "dev",
				"methods": {},
				"version": 1
			},
			"evm": {
				"assembly": "    /* \"contracts/ComplexValueType.sol\":70:564  contract ComplexValueType {... */\n  mstore(0x40, 0x80)\n  callvalue\n  dup1\n  iszero\n  tag_1\n  jumpi\n  0x00\n  dup1\n  revert\ntag_1:\n  pop\n  dataSize(sub_0)\n  dup1\n  dataOffset(sub_0)\n  0x00\n  codecopy\n  0x00\n  return\nstop\n\nsub_0: assembly {\n        /* \"contracts/ComplexValueType.sol\":70:564  contract ComplexValueType {... */\n      mstore(0x40, 0x80)\n      callvalue\n      dup1\n      iszero\n      tag_1\n      jumpi\n      0x00\n      dup1\n      revert\n    tag_1:\n      pop\n      jumpi(tag_2, lt(calldatasize, 0x04))\n      shr(0xe0, calldataload(0x00))\n      dup1\n      0x262330b4\n      eq\n      tag_3\n      jumpi\n      dup1\n      0x45ee763b\n      eq\n      tag_4\n      jumpi\n      dup1\n      0x9ff76d70\n      eq\n      tag_5\n      jumpi\n    tag_2:\n      0x00\n      dup1\n      revert\n        /* \"contracts/ComplexValueType.sol\":102:278  function testAddress() public view returns (address) {... */\n    tag_3:\n      tag_6\n      tag_7\n      jump\t// in\n    tag_6:\n      mload(0x40)\n      tag_8\n      swap2\n      swap1\n      tag_9\n      jump\t// in\n    tag_8:\n      mload(0x40)\n      dup1\n      swap2\n      sub\n      swap1\n      return\n        /* \"contracts/ComplexValueType.sol\":453:562  function testFixedByteArray() public pure returns (bytes28){... */\n    tag_4:\n      tag_10\n      tag_11\n      jump\t// in\n    tag_10:\n      mload(0x40)\n      tag_12\n      swap2\n      swap1\n      tag_13\n      jump\t// in\n    tag_12:\n      mload(0x40)\n      dup1\n      swap2\n      sub\n      swap1\n      return\n        /* \"contracts/ComplexValueType.sol\":284:447  function testMyAddress() public view returns (address) {... */\n    tag_5:\n      tag_14\n      tag_15\n      jump\t// in\n    tag_14:\n      mload(0x40)\n      tag_16\n      swap2\n      swap1\n      tag_9\n      jump\t// in\n    tag_16:\n      mload(0x40)\n      dup1\n      swap2\n      sub\n      swap1\n      return\n        /* \"contracts/ComplexValueType.sol\":102:278  function testAddress() public view returns (address) {... */\n    tag_7:\n        /* \"contracts/ComplexValueType.sol\":146:153  address */\n      0x00\n        /* \"contracts/ComplexValueType.sol\":225:237  address addr */\n      dup1\n        /* \"contracts/ComplexValueType.sol\":240:250  msg.sender */\n      caller\n        /* \"contracts/ComplexValueType.sol\":225:250  address addr = msg.sender */\n      swap1\n      pop\n        /* \"contracts/ComplexValueType.sol\":267:271  addr */\n      dup1\n        /* \"contracts/ComplexValueType.sol\":260:271  return addr */\n      swap2\n      pop\n      pop\n        /* \"contracts/ComplexValueType.sol\":102:278  function testAddress() public view returns (address) {... */\n      swap1\n      jump\t// out\n        /* \"contracts/ComplexValueType.sol\":453:562  function testFixedByteArray() public pure returns (bytes28){... */\n    tag_11:\n        /* \"contracts/ComplexValueType.sol\":504:511  bytes28 */\n      0x00\n        /* \"contracts/ComplexValueType.sol\":522:534  bytes28 data */\n      dup1\n        /* \"contracts/ComplexValueType.sol\":551:555  data */\n      dup1\n        /* \"contracts/ComplexValueType.sol\":544:555  return data */\n      swap2\n      pop\n      pop\n        /* \"contracts/ComplexValueType.sol\":453:562  function testFixedByteArray() public pure returns (bytes28){... */\n      swap1\n      jump\t// out\n        /* \"contracts/ComplexValueType.sol\":284:447  function testMyAddress() public view returns (address) {... */\n    tag_15:\n        /* \"contracts/ComplexValueType.sol\":330:337  address */\n      0x00\n        /* \"contracts/ComplexValueType.sol\":391:403  address addr */\n      dup1\n        /* \"contracts/ComplexValueType.sol\":414:418  this */\n      address\n        /* \"contracts/ComplexValueType.sol\":391:419  address addr = address(this) */\n      swap1\n      pop\n        /* \"contracts/ComplexValueType.sol\":436:440  addr */\n      dup1\n        /* \"contracts/ComplexValueType.sol\":429:440  return addr */\n      swap2\n      pop\n      pop\n        /* \"contracts/ComplexValueType.sol\":284:447  function testMyAddress() public view returns (address) {... */\n      swap1\n      jump\t// out\n        /* \"#utility.yul\":7:133   */\n    tag_20:\n        /* \"#utility.yul\":44:51   */\n      0x00\n        /* \"#utility.yul\":84:126   */\n      0xffffffffffffffffffffffffffffffffffffffff\n        /* \"#utility.yul\":77:82   */\n      dup3\n        /* \"#utility.yul\":73:127   */\n      and\n        /* \"#utility.yul\":62:127   */\n      swap1\n      pop\n        /* \"#utility.yul\":7:133   */\n      swap2\n      swap1\n      pop\n      jump\t// out\n        /* \"#utility.yul\":139:235   */\n    tag_21:\n        /* \"#utility.yul\":176:183   */\n      0x00\n        /* \"#utility.yul\":205:229   */\n      tag_28\n        /* \"#utility.yul\":223:228   */\n      dup3\n        /* \"#utility.yul\":205:229   */\n      tag_20\n      jump\t// in\n    tag_28:\n        /* \"#utility.yul\":194:229   */\n      swap1\n      pop\n        /* \"#utility.yul\":139:235   */\n      swap2\n      swap1\n      pop\n      jump\t// out\n        /* \"#utility.yul\":241:359   */\n    tag_22:\n        /* \"#utility.yul\":328:352   */\n      tag_30\n        /* \"#utility.yul\":346:351   */\n      dup2\n        /* \"#utility.yul\":328:352   */\n      tag_21\n      jump\t// in\n    tag_30:\n        /* \"#utility.yul\":323:326   */\n      dup3\n        /* \"#utility.yul\":316:353   */\n      mstore\n        /* \"#utility.yul\":241:359   */\n      pop\n      pop\n      jump\t// out\n        /* \"#utility.yul\":365:587   */\n    tag_9:\n        /* \"#utility.yul\":458:462   */\n      0x00\n        /* \"#utility.yul\":496:498   */\n      0x20\n        /* \"#utility.yul\":485:494   */\n      dup3\n        /* \"#utility.yul\":481:499   */\n      add\n        /* \"#utility.yul\":473:499   */\n      swap1\n      pop\n        /* \"#utility.yul\":509:580   */\n      tag_32\n        /* \"#utility.yul\":577:578   */\n      0x00\n        /* \"#utility.yul\":566:575   */\n      dup4\n        /* \"#utility.yul\":562:579   */\n      add\n        /* \"#utility.yul\":553:559   */\n      dup5\n        /* \"#utility.yul\":509:580   */\n      tag_22\n      jump\t// in\n    tag_32:\n        /* \"#utility.yul\":365:587   */\n      swap3\n      swap2\n      pop\n      pop\n      jump\t// out\n        /* \"#utility.yul\":593:743   */\n    tag_23:\n        /* \"#utility.yul\":630:637   */\n      0x00\n        /* \"#utility.yul\":670:736   */\n      0xffffffffffffffffffffffffffffffffffffffffffffffffffffffff00000000\n        /* \"#utility.yul\":663:668   */\n      dup3\n        /* \"#utility.yul\":659:737   */\n      and\n        /* \"#utility.yul\":648:737   */\n      swap1\n      pop\n        /* \"#utility.yul\":593:743   */\n      swap2\n      swap1\n      pop\n      jump\t// out\n        /* \"#utility.yul\":749:867   */\n    tag_24:\n        /* \"#utility.yul\":836:860   */\n      tag_35\n        /* \"#utility.yul\":854:859   */\n      dup2\n        /* \"#utility.yul\":836:860   */\n      tag_23\n      jump\t// in\n    tag_35:\n        /* \"#utility.yul\":831:834   */\n      dup3\n        /* \"#utility.yul\":824:861   */\n      mstore\n        /* \"#utility.yul\":749:867   */\n      pop\n      pop\n      jump\t// out\n        /* \"#utility.yul\":873:1095   */\n    tag_13:\n        /* \"#utility.yul\":966:970   */\n      0x00\n        /* \"#utility.yul\":1004:1006   */\n      0x20\n        /* \"#utility.yul\":993:1002   */\n      dup3\n        /* \"#utility.yul\":989:1007   */\n      add\n        /* \"#utility.yul\":981:1007   */\n      swap1\n      pop\n        /* \"#utility.yul\":1017:1088   */\n      tag_37\n        /* \"#utility.yul\":1085:1086   */\n      0x00\n        /* \"#utility.yul\":1074:1083   */\n      dup4\n        /* \"#utility.yul\":1070:1087   */\n      add\n        /* \"#utility.yul\":1061:1067   */\n      dup5\n        /* \"#utility.yul\":1017:1088   */\n      tag_24\n      jump\t// in\n    tag_37:\n        /* \"#utility.yul\":873:1095   */\n      swap3\n      swap2\n      pop\n      pop\n      jump\t// out\n\n    auxdata: 0xa2646970667358221220dfdf520603c0035306a882fca31b17acc13c6e0d9595c7baebc29e4924ab047464736f6c634300081a0033\n}\n",
				"bytecode": {
					"linkReferences": {},
					"object": "6080604052348015600e575f80fd5b5061019f8061001c5f395ff3fe608060405234801561000f575f80fd5b506004361061003f575f3560e01c8063262330b41461004357806345ee763b146100615780639ff76d701461007f575b5f80fd5b61004b61009d565b60405161005891906100fd565b60405180910390f35b6100696100a9565b6040516100769190610150565b60405180910390f35b6100876100b2565b60405161009491906100fd565b60405180910390f35b5f803390508091505090565b5f808091505090565b5f803090508091505090565b5f73ffffffffffffffffffffffffffffffffffffffff82169050919050565b5f6100e7826100be565b9050919050565b6100f7816100dd565b82525050565b5f6020820190506101105f8301846100ee565b92915050565b5f7fffffffffffffffffffffffffffffffffffffffffffffffffffffffff0000000082169050919050565b61014a81610116565b82525050565b5f6020820190506101635f830184610141565b9291505056fea2646970667358221220dfdf520603c0035306a882fca31b17acc13c6e0d9595c7baebc29e4924ab047464736f6c634300081a0033",
					"opcodes": "PUSH1 0x80 PUSH1 0x40 MSTORE CALLVALUE DUP1 ISZERO PUSH1 0xE JUMPI PUSH0 DUP1 REVERT JUMPDEST POP PUSH2 0x19F DUP1 PUSH2 0x1C PUSH0 CODECOPY PUSH0 RETURN INVALID PUSH1 0x80 PUSH1 0x40 MSTORE CALLVALUE DUP1 ISZERO PUSH2 0xF JUMPI PUSH0 DUP1 REVERT JUMPDEST POP PUSH1 0x4 CALLDATASIZE LT PUSH2 0x3F JUMPI PUSH0 CALLDATALOAD PUSH1 0xE0 SHR DUP1 PUSH4 0x262330B4 EQ PUSH2 0x43 JUMPI DUP1 PUSH4 0x45EE763B EQ PUSH2 0x61 JUMPI DUP1 PUSH4 0x9FF76D70 EQ PUSH2 0x7F JUMPI JUMPDEST PUSH0 DUP1 REVERT JUMPDEST PUSH2 0x4B PUSH2 0x9D JUMP JUMPDEST PUSH1 0x40 MLOAD PUSH2 0x58 SWAP2 SWAP1 PUSH2 0xFD JUMP JUMPDEST PUSH1 0x40 MLOAD DUP1 SWAP2 SUB SWAP1 RETURN JUMPDEST PUSH2 0x69 PUSH2 0xA9 JUMP JUMPDEST PUSH1 0x40 MLOAD PUSH2 0x76 SWAP2 SWAP1 PUSH2 0x150 JUMP JUMPDEST PUSH1 0x40 MLOAD DUP1 SWAP2 SUB SWAP1 RETURN JUMPDEST PUSH2 0x87 PUSH2 0xB2 JUMP JUMPDEST PUSH1 0x40 MLOAD PUSH2 0x94 SWAP2 SWAP1 PUSH2 0xFD JUMP JUMPDEST PUSH1 0x40 MLOAD DUP1 SWAP2 SUB SWAP1 RETURN JUMPDEST PUSH0 DUP1 CALLER SWAP1 POP DUP1 SWAP2 POP POP SWAP1 JUMP JUMPDEST PUSH0 DUP1 DUP1 SWAP2 POP POP SWAP1 JUMP JUMPDEST PUSH0 DUP1 ADDRESS SWAP1 POP DUP1 SWAP2 POP POP SWAP1 JUMP JUMPDEST PUSH0 PUSH20 0xFFFFFFFFFFFFFFFFFFFFFFFFFFFFFFFFFFFFFFFF DUP3 AND SWAP1 POP SWAP2 SWAP1 POP JUMP JUMPDEST PUSH0 PUSH2 0xE7 DUP3 PUSH2 0xBE JUMP JUMPDEST SWAP1 POP SWAP2 SWAP1 POP JUMP JUMPDEST PUSH2 0xF7 DUP2 PUSH2 0xDD JUMP JUMPDEST DUP3 MSTORE POP POP JUMP JUMPDEST PUSH0 PUSH1 0x20 DUP3 ADD SWAP1 POP PUSH2 0x110 PUSH0 DUP4 ADD DUP5 PUSH2 0xEE JUMP JUMPDEST SWAP3 SWAP2 POP POP JUMP JUMPDEST PUSH0 PUSH32 0xFFFFFFFFFFFFFFFFFFFFFFFFFFFFFFFFFFFFFFFFFFFFFFFFFFFFFFFF00000000 DUP3 AND SWAP1 POP SWAP2 SWAP1 POP JUMP JUMPDEST PUSH2 0x14A DUP2 PUSH2 0x116 JUMP JUMPDEST DUP3 MSTORE POP POP JUMP JUMPDEST PUSH0 PUSH1 0x20 DUP3 ADD SWAP1 POP PUSH2 0x163 PUSH0 DUP4 ADD DUP5 PUSH2 0x141 JUMP JUMPDEST SWAP3 SWAP2 POP POP JUMP INVALID LOG2 PUSH5 0x6970667358 0x22 SLT KECCAK256 0xDF 0xDF MSTORE MOD SUB 0xC0 SUB MSTORE8 MOD 0xA8 DUP3 0xFC LOG3 SHL OR 0xAC 0xC1 EXTCODECOPY PUSH15 0xD9595C7BAEBC29E4924AB04746473 PUSH16 0x6C634300081A00330000000000000000 "
				},
				"gasEstimates": {
					"creation": {
						"codeDepositCost": "83000",
						"executionCost": "127",
						"totalCost": "83127"
					},
					"external": {
						"testAddress()": "370",
						"testFixedByteArray()": "343",
						"testMyAddress()": "414"
					}
				},
				"methodIdentifiers": {
					"testAddress()": "262330b4",
					"testFixedByteArray()": "45ee763b",
					"testMyAddress()": "9ff76d70"
				}
			},
			"storageLayout": {
				"storage": [],
				"types": null
			},
			"userdoc": {
				"kind": "user",
				"methods": {},
				"version": 1
			}
		}
	}
}